{
  "contractName": "complaint",
  "abi": [
    {
      "inputs": [
        {
          "internalType": "address",
          "name": "user",
          "type": "address"
        },
        {
          "internalType": "uint256",
          "name": "id",
          "type": "uint256"
        },
        {
          "internalType": "string",
          "name": "comp",
          "type": "string"
        }
      ],
      "name": "addComplaint",
      "outputs": [],
      "stateMutability": "nonpayable",
      "type": "function"
    },
    {
      "inputs": [],
      "name": "listComplaints",
      "outputs": [
        {
          "internalType": "address[]",
          "name": "",
          "type": "address[]"
        },
        {
          "internalType": "uint256[]",
          "name": "",
          "type": "uint256[]"
        },
        {
          "internalType": "string[]",
          "name": "",
          "type": "string[]"
        },
        {
          "internalType": "uint256[]",
          "name": "",
          "type": "uint256[]"
        }
      ],
      "stateMutability": "view",
      "type": "function",
      "constant": true
    },
    {
      "inputs": [
        {
          "internalType": "uint256",
          "name": "id",
          "type": "uint256"
        },
        {
          "internalType": "uint256",
          "name": "status",
          "type": "uint256"
        }
      ],
      "name": "updateComplaint",
      "outputs": [],
      "stateMutability": "nonpayable",
      "type": "function"
    }
  ],
  "bytecode": "0x608060405234801561001057600080fd5b50610bc5806100206000396000f3fe608060405234801561001057600080fd5b50600436106100415760003560e01c806315f0b75d1461004657806364f59bde14610062578063b706b6d514610083575b600080fd5b610060600480360381019061005b91906106b3565b61009f565b005b61006a610196565b60405161007a94939291906109e8565b60405180910390f35b61009d60048036038101906100989190610a49565b6103b1565b005b6002839080600181540180825580915050600190039060005260206000200160009091909190916101000a81548173ffffffffffffffffffffffffffffffffffffffff021916908373ffffffffffffffffffffffffffffffffffffffff1602179055506000829080600181540180825580915050600190039060005260206000200160009091909190915055600181908060018154018082558091505060019003906000526020600020016000909190919091509080519060200190610166929190610422565b50600360009080600181540180825580915050600190039060005260206000200160009091909190915055505050565b60608060608060026000600160038380548060200260200160405190810160405280929190818152602001828054801561022557602002820191906000526020600020905b8160009054906101000a900473ffffffffffffffffffffffffffffffffffffffff1673ffffffffffffffffffffffffffffffffffffffff16815260200190600101908083116101db575b505050505093508280548060200260200160405190810160405280929190818152602001828054801561027757602002820191906000526020600020905b815481526020019060010190808311610263575b5050505050925081805480602002602001604051908101604052809291908181526020016000905b8282101561034b5783829060005260206000200180546102be90610ab8565b80601f01602080910402602001604051908101604052809291908181526020018280546102ea90610ab8565b80156103375780601f1061030c57610100808354040283529160200191610337565b820191906000526020600020905b81548152906001019060200180831161031a57829003601f168201915b50505050508152602001906001019061029f565b5050505091508080548060200260200160405190810160405280929190818152602001828054801561039c57602002820191906000526020600020905b815481526020019060010190808311610388575b50505050509050935093509350935090919293565b60005b60008054905081101561041d5782600082815481106103d6576103d5610ae9565b5b90600052602060002001540361040a5781600382815481106103fb576103fa610ae9565b5b90600052602060002001819055505b808061041590610b47565b9150506103b4565b505050565b82805461042e90610ab8565b90600052602060002090601f0160209004810192826104505760008555610497565b82601f1061046957805160ff1916838001178555610497565b82800160010185558215610497579182015b8281111561049657825182559160200191906001019061047b565b5b5090506104a491906104a8565b5090565b5b808211156104c15760008160009055506001016104a9565b5090565b6000604051905090565b600080fd5b600080fd5b600073ffffffffffffffffffffffffffffffffffffffff82169050919050565b6000610504826104d9565b9050919050565b610514816104f9565b811461051f57600080fd5b50565b6000813590506105318161050b565b92915050565b6000819050919050565b61054a81610537565b811461055557600080fd5b50565b60008135905061056781610541565b92915050565b600080fd5b600080fd5b6000601f19601f8301169050919050565b7f4e487b7100000000000000000000000000000000000000000000000000000000600052604160045260246000fd5b6105c082610577565b810181811067ffffffffffffffff821117156105df576105de610588565b5b80604052505050565b60006105f26104c5565b90506105fe82826105b7565b919050565b600067ffffffffffffffff82111561061e5761061d610588565b5b61062782610577565b9050602081019050919050565b82818337600083830152505050565b600061065661065184610603565b6105e8565b90508281526020810184848401111561067257610671610572565b5b61067d848285610634565b509392505050565b600082601f83011261069a5761069961056d565b5b81356106aa848260208601610643565b91505092915050565b6000806000606084860312156106cc576106cb6104cf565b5b60006106da86828701610522565b93505060206106eb86828701610558565b925050604084013567ffffffffffffffff81111561070c5761070b6104d4565b5b61071886828701610685565b9150509250925092565b600081519050919050565b600082825260208201905092915050565b6000819050602082019050919050565b610757816104f9565b82525050565b6000610769838361074e565b60208301905092915050565b6000602082019050919050565b600061078d82610722565b610797818561072d565b93506107a28361073e565b8060005b838110156107d35781516107ba888261075d565b97506107c583610775565b9250506001810190506107a6565b5085935050505092915050565b600081519050919050565b600082825260208201905092915050565b6000819050602082019050919050565b61081581610537565b82525050565b6000610827838361080c565b60208301905092915050565b6000602082019050919050565b600061084b826107e0565b61085581856107eb565b9350610860836107fc565b8060005b83811015610891578151610878888261081b565b975061088383610833565b925050600181019050610864565b5085935050505092915050565b600081519050919050565b600082825260208201905092915050565b6000819050602082019050919050565b600081519050919050565b600082825260208201905092915050565b60005b838110156109045780820151818401526020810190506108e9565b83811115610913576000848401525b50505050565b6000610924826108ca565b61092e81856108d5565b935061093e8185602086016108e6565b61094781610577565b840191505092915050565b600061095e8383610919565b905092915050565b6000602082019050919050565b600061097e8261089e565b61098881856108a9565b93508360208202850161099a856108ba565b8060005b858110156109d657848403895281516109b78582610952565b94506109c283610966565b925060208a0199505060018101905061099e565b50829750879550505050505092915050565b60006080820190508181036000830152610a028187610782565b90508181036020830152610a168186610840565b90508181036040830152610a2a8185610973565b90508181036060830152610a3e8184610840565b905095945050505050565b60008060408385031215610a6057610a5f6104cf565b5b6000610a6e85828601610558565b9250506020610a7f85828601610558565b9150509250929050565b7f4e487b7100000000000000000000000000000000000000000000000000000000600052602260045260246000fd5b60006002820490506001821680610ad057607f821691505b602082108103610ae357610ae2610a89565b5b50919050565b7f4e487b7100000000000000000000000000000000000000000000000000000000600052603260045260246000fd5b7f4e487b7100000000000000000000000000000000000000000000000000000000600052601160045260246000fd5b6000610b5282610537565b91507fffffffffffffffffffffffffffffffffffffffffffffffffffffffffffffffff8203610b8457610b83610b18565b5b60018201905091905056fea2646970667358221220c3279a6694687cf35938abde3b5233ec3de4538cde865f2f218bdb29bb44a03c64736f6c634300080e0033",
  "immutableReferences": {},
  "source": "// SPDX-License-Identifier: MIT\npragma solidity >=0.4.22 <0.9.0;\n\ncontract complaint {\n\n  uint[] _ids;\n  string[] _complaints;\n  address[] _users;\n  uint[] _statuses;\n\n  function addComplaint(address user,uint id,string memory comp) public {\n\n    _users.push(user);\n    _ids.push(id);\n    _complaints.push(comp);\n    _statuses.push(0);\n  }\n\n  function listComplaints() public view returns (address[] memory, uint[] memory, string[] memory, uint[] memory) {\n\n    return (_users,_ids,_complaints,_statuses);\n  }\n\n  function updateComplaint(uint id, uint status) public {\n    uint i=0;\n    for(i=0;i<_ids.length;i++) {\n      if(_ids[i]==id) {\n        _statuses[i]=status;\n      }\n    }\n  }\n}\n",
  "sourcePath": "C:\\Users\\Madhu\\Desktop\\complaint-tracking-system\\contracts\\complaint.sol",
  "compiler": {
    "name": "solc",
    "version": "0.8.14+commit.80d49f37.Emscripten.clang"
  },
  "schemaVersion": "3.4.7",
  "updatedAt": "2022-05-31T16:44:28.870Z",
  "networkType": "ethereum",
  "devdoc": {
    "kind": "dev",
    "methods": {},
    "version": 1
  },
  "userdoc": {
    "kind": "user",
    "methods": {},
    "version": 1
  }
}