{
  "contractName": "register",
  "abi": [
    {
      "inputs": [
        {
          "internalType": "address",
          "name": "user",
          "type": "address"
        },
        {
          "internalType": "string",
          "name": "name",
          "type": "string"
        },
        {
          "internalType": "uint256",
          "name": "password",
          "type": "uint256"
        },
        {
          "internalType": "string",
          "name": "email",
          "type": "string"
        }
      ],
      "name": "registerUser",
      "outputs": [],
      "stateMutability": "nonpayable",
      "type": "function"
    },
    {
      "inputs": [],
      "name": "viewUsers",
      "outputs": [
        {
          "internalType": "address[]",
          "name": "",
          "type": "address[]"
        },
        {
          "internalType": "string[]",
          "name": "",
          "type": "string[]"
        },
        {
          "internalType": "uint256[]",
          "name": "",
          "type": "uint256[]"
        },
        {
          "internalType": "string[]",
          "name": "",
          "type": "string[]"
        }
      ],
      "stateMutability": "view",
      "type": "function",
      "constant": true
    },
    {
      "inputs": [
        {
          "internalType": "address",
          "name": "user",
          "type": "address"
        },
        {
          "internalType": "uint256",
          "name": "password",
          "type": "uint256"
        }
      ],
      "name": "loginUser",
      "outputs": [
        {
          "internalType": "bool",
          "name": "",
          "type": "bool"
        }
      ],
      "stateMutability": "view",
      "type": "function",
      "constant": true
    }
  ],
  "bytecode": "0x608060405234801561001057600080fd5b50610d92806100206000396000f3fe608060405234801561001057600080fd5b50600436106100415760003560e01c806314ebdb7914610046578063c7491eb514610067578063eb72346b14610083575b600080fd5b61004e6100b3565b60405161005e949392919061093f565b60405180910390f35b610081600480360381019061007c9190610b41565b61034f565b005b61009d60048036038101906100989190610be0565b6104b0565b6040516100aa9190610c3b565b60405180910390f35b60608060608060006001600260038380548060200260200160405190810160405280929190818152602001828054801561014257602002820191906000526020600020905b8160009054906101000a900473ffffffffffffffffffffffffffffffffffffffff1673ffffffffffffffffffffffffffffffffffffffff16815260200190600101908083116100f8575b5050505050935082805480602002602001604051908101604052809291908181526020016000905b8282101561021657838290600052602060002001805461018990610c85565b80601f01602080910402602001604051908101604052809291908181526020018280546101b590610c85565b80156102025780601f106101d757610100808354040283529160200191610202565b820191906000526020600020905b8154815290600101906020018083116101e557829003601f168201915b50505050508152602001906001019061016a565b5050505092508180548060200260200160405190810160405280929190818152602001828054801561026757602002820191906000526020600020905b815481526020019060010190808311610253575b5050505050915080805480602002602001604051908101604052809291908181526020016000905b8282101561033b5783829060005260206000200180546102ae90610c85565b80601f01602080910402602001604051908101604052809291908181526020018280546102da90610c85565b80156103275780601f106102fc57610100808354040283529160200191610327565b820191906000526020600020905b81548152906001019060200180831161030a57829003601f168201915b50505050508152602001906001019061028f565b505050509050935093509350935090919293565b600460008573ffffffffffffffffffffffffffffffffffffffff1673ffffffffffffffffffffffffffffffffffffffff16815260200190815260200160002060009054906101000a900460ff16156103a657600080fd5b6000849080600181540180825580915050600190039060005260206000200160009091909190916101000a81548173ffffffffffffffffffffffffffffffffffffffff021916908373ffffffffffffffffffffffffffffffffffffffff160217905550600183908060018154018082558091505060019003906000526020600020016000909190919091509080519060200190610444929190610589565b5060028290806001815401808255809150506001900390600052602060002001600090919091909150556003819080600181540180825580915050600190039060005260206000200160009091909190915090805190602001906104a9929190610589565b5050505050565b600080600090505b60008054905081101561057d578373ffffffffffffffffffffffffffffffffffffffff16600082815481106104f0576104ef610cb6565b5b9060005260206000200160009054906101000a900473ffffffffffffffffffffffffffffffffffffffff1673ffffffffffffffffffffffffffffffffffffffff1614801561055b5750826002828154811061054e5761054d610cb6565b5b9060005260206000200154145b1561056a576001915050610583565b808061057590610d14565b9150506104b8565b60009150505b92915050565b82805461059590610c85565b90600052602060002090601f0160209004810192826105b757600085556105fe565b82601f106105d057805160ff19168380011785556105fe565b828001600101855582156105fe579182015b828111156105fd5782518255916020019190600101906105e2565b5b50905061060b919061060f565b5090565b5b80821115610628576000816000905550600101610610565b5090565b600081519050919050565b600082825260208201905092915050565b6000819050602082019050919050565b600073ffffffffffffffffffffffffffffffffffffffff82169050919050565b600061068382610658565b9050919050565b61069381610678565b82525050565b60006106a5838361068a565b60208301905092915050565b6000602082019050919050565b60006106c98261062c565b6106d38185610637565b93506106de83610648565b8060005b8381101561070f5781516106f68882610699565b9750610701836106b1565b9250506001810190506106e2565b5085935050505092915050565b600081519050919050565b600082825260208201905092915050565b6000819050602082019050919050565b600081519050919050565b600082825260208201905092915050565b60005b83811015610782578082015181840152602081019050610767565b83811115610791576000848401525b50505050565b6000601f19601f8301169050919050565b60006107b382610748565b6107bd8185610753565b93506107cd818560208601610764565b6107d681610797565b840191505092915050565b60006107ed83836107a8565b905092915050565b6000602082019050919050565b600061080d8261071c565b6108178185610727565b93508360208202850161082985610738565b8060005b85811015610865578484038952815161084685826107e1565b9450610851836107f5565b925060208a0199505060018101905061082d565b50829750879550505050505092915050565b600081519050919050565b600082825260208201905092915050565b6000819050602082019050919050565b6000819050919050565b6108b6816108a3565b82525050565b60006108c883836108ad565b60208301905092915050565b6000602082019050919050565b60006108ec82610877565b6108f68185610882565b935061090183610893565b8060005b8381101561093257815161091988826108bc565b9750610924836108d4565b925050600181019050610905565b5085935050505092915050565b6000608082019050818103600083015261095981876106be565b9050818103602083015261096d8186610802565b9050818103604083015261098181856108e1565b905081810360608301526109958184610802565b905095945050505050565b6000604051905090565b600080fd5b600080fd5b6109bd81610678565b81146109c857600080fd5b50565b6000813590506109da816109b4565b92915050565b600080fd5b600080fd5b7f4e487b7100000000000000000000000000000000000000000000000000000000600052604160045260246000fd5b610a2282610797565b810181811067ffffffffffffffff82111715610a4157610a406109ea565b5b80604052505050565b6000610a546109a0565b9050610a608282610a19565b919050565b600067ffffffffffffffff821115610a8057610a7f6109ea565b5b610a8982610797565b9050602081019050919050565b82818337600083830152505050565b6000610ab8610ab384610a65565b610a4a565b905082815260208101848484011115610ad457610ad36109e5565b5b610adf848285610a96565b509392505050565b600082601f830112610afc57610afb6109e0565b5b8135610b0c848260208601610aa5565b91505092915050565b610b1e816108a3565b8114610b2957600080fd5b50565b600081359050610b3b81610b15565b92915050565b60008060008060808587031215610b5b57610b5a6109aa565b5b6000610b69878288016109cb565b945050602085013567ffffffffffffffff811115610b8a57610b896109af565b5b610b9687828801610ae7565b9350506040610ba787828801610b2c565b925050606085013567ffffffffffffffff811115610bc857610bc76109af565b5b610bd487828801610ae7565b91505092959194509250565b60008060408385031215610bf757610bf66109aa565b5b6000610c05858286016109cb565b9250506020610c1685828601610b2c565b9150509250929050565b60008115159050919050565b610c3581610c20565b82525050565b6000602082019050610c506000830184610c2c565b92915050565b7f4e487b7100000000000000000000000000000000000000000000000000000000600052602260045260246000fd5b60006002820490506001821680610c9d57607f821691505b602082108103610cb057610caf610c56565b5b50919050565b7f4e487b7100000000000000000000000000000000000000000000000000000000600052603260045260246000fd5b7f4e487b7100000000000000000000000000000000000000000000000000000000600052601160045260246000fd5b6000610d1f826108a3565b91507fffffffffffffffffffffffffffffffffffffffffffffffffffffffffffffffff8203610d5157610d50610ce5565b5b60018201905091905056fea2646970667358221220c7c465b196bdfdeb5637eb9fc8947042a5848bc1781003a8a003de7418e203c964736f6c634300080e0033",
  "immutableReferences": {},
  "source": "// SPDX-License-Identifier: MIT\npragma solidity >=0.4.22 <0.9.0;\n\ncontract register {\n  \n  address[] _users;\n  string[] _names;\n  uint[] _passwords;\n  string[] _emails;\n\n  mapping(address=>bool) _customers;\n\n  function registerUser(address user, string memory name, uint password, string memory email) public {\n\n    require(!_customers[user]);\n    _users.push(user);\n    _names.push(name);\n    _passwords.push(password);\n    _emails.push(email);\n  }\n\n  function viewUsers() public view returns (address[] memory, string[] memory, uint[] memory, string[] memory) {\n    return (_users,_names,_passwords,_emails);\n  }\n\n  function loginUser(address user, uint password) public view returns(bool) {\n\n    uint i;\n\n    for(i=0;i<_users.length;i++) {\n      if(_users[i]==user && _passwords[i]==password)\n        return true;\n    }\n    return false;\n  }\n}\n",
  "sourcePath": "C:\\Users\\Madhu\\Desktop\\complaint-tracking-system\\contracts\\register.sol",
  "compiler": {
    "name": "solc",
    "version": "0.8.14+commit.80d49f37.Emscripten.clang"
  },
  "schemaVersion": "3.4.7",
  "updatedAt": "2022-05-31T16:44:27.185Z",
  "networkType": "ethereum",
  "devdoc": {
    "kind": "dev",
    "methods": {},
    "version": 1
  },
  "userdoc": {
    "kind": "user",
    "methods": {},
    "version": 1
  }
}